:020000040800F2
:10000000F80D00209101000867320008C928000897
:1000100065320008F7060008D13C00080000000027
:10002000000000000000000000000000AB350008E8
:100030003B07000800000000A9350008AD350008A6
:10004000AB010008AB010008AB010008AB010008E0
:10005000AB010008AB010008AB010008AB010008D0
:10006000AB010008AB010008AB010008AB010008C0
:10007000AB010008AB010008F906000805070008FD
:10008000AB010008AB010008AB010008AB010008A0
:10009000AB010008AB010008AB010008AB01000890
:1000A00011360008AB010008AB010008AB010008E5
:1000B0001D3600082936000835360008AB01000857
:1000C000AB010008AB010008AB010008AB01000860
:1000D000AB010008C53C0008AB010008AB010008FB
:1000E000AB010008AB010008AB01000800F002F80A
:1000F00000F03FF80AA090E8000C82448344AAF183
:100100000107DA4501D100F034F8AFF2090EBAE880
:100110000F0013F0010F18BFFB1A43F0010318473B
:10012000DC410000FC410000103A24BF78C878C1CF
:10013000FAD8520724BF30C830C144BF04680C60ED
:10014000704700000023002400250026103A28BF35
:1001500078C1FBD8520728BF30C148BF0B60704739
:10016000752900F04980002070471FB51FBD10B5EC
:1001700010BD00F08BFA1146FFF7F7FF03F0C8FD42
:1001800000F0A9FA03B4FFF7F2FF03BC00F0ACFAE9
:100190000948804709480047FEE7FEE7FEE7FEE71B
:1001A000FEE7FEE7FEE7FEE7FEE7FEE70448054957
:1001B000054A064B704700000F360008ED000008A6
:1001C000F8070020F80D0020F8090020F8090020A9
:1001D0000FB41CB5074B06AA7B44694600900598EE
:1001E00000F005FA0020694600F014FA1CBC5DF826
:1001F00014FB0000390400002DE9F04106460024FC
:1002000010687529314616A510D0AFF3008000287C
:1002100002DA404213A507E031688A0701D512A52A
:1002200002E0490704D511A5012401E0AFF30080E5
:1002300000210A2206F1240709E0B0FBF2FCB0FB22
:10024000F2F302FB1C00303078541846491C002899
:10025000F3D123462A463046BDE8F04100F068B9A4
:10026000000000002D0000002B0000002000000016
:100270002DE9F0474FF0000A89460446C0F820A057
:100280002046E1688847002876D0252806D0D4E9A2
:1002900001219047206A401C2062F1E7E168204676
:1002A00000268847C4F81CA005460027C4F818A0FB
:1002B0002A2D09D0284603F01CFD38B304EB87082B
:1002C000303DC8F8185019E059F8041B204604EBDB
:1002D00087029161E1688847012F054618D1E069DE
:1002E000002820DA26F020061DE0D8F8180000EBE0
:1002F000800005EB40003038C8F818002046E1685F
:100300008847054603F0F5FC0028EED1012F0AD0FE
:100310002E2D08D12046E16888477F1C0546022F14
:1003200046F02006C4DBA069002803DA404246F00C
:100330000106A061F00701D026F010066C2D0AD04E
:10034000682D08D04C2D39D06A2D35D0742D35D07C
:100350007A2D33D016E0E1682F4620468847B84210
:1003600005460AD16C2F27D04FF48060E168064320
:1003700020468847054605E027E06C2F1AD04FF449
:10038000807006430DB3A5F14100192802D820352D
:1003900046F400664A462946204626604E46FFF748
:1003A000DFFE80B101280BD0F61D26F0070000F11A
:1003B000080965E74020E4E78020D7E70020D5E77B
:1003C00006F104095CE7284661E7206ABDE8F0878A
:1003D00010B5431C02E010F8011B71B18107FAD17E
:1003E0004FF0013202C88C1A8C4314EAC211F9D0C2
:1003F000C01A0A0603D0C01E10BDC01A10BD0A04E0
:1004000001D0801E10BD0902FCD0401E10BD032A81
:1004100040F2308010F0030C00F0158011F8013B21
:10042000BCF1020F624498BF11F801CB00F8013B08
:1004300038BF11F8013BA2F1040298BF00F801CBCC
:1004400038BF00F8013B11F0030300F0E880083AE0
:10045000C0F0088051F8043B083A51F804CBA0E8FA
:100460000810F5E7121D5CBF51F8043B40F8043B4F
:10047000AFF30080D20724BF11F8013B11F801CB84
:1004800048BF11F8012B24BF00F8013B00F801CB55
:1004900048BF00F8012B70474FF000020429C0F05C
:1004A000128010F0030C00F01B80CCF1040CBCF1A6
:1004B000020F18BF00F8012BA8BF20F8022BA1EBF8
:1004C0000C0100F00DB85FEAC17C24BF00F8012BDD
:1004D00000F8012B48BF00F8012B70474FF00002D5
:1004E00000B5134694469646203922BFA0E80C502A
:1004F000A0E80C50B1F12001BFF4F7AF090728BF05
:10050000A0E80C5048BF0CC05DF804EB890028BF80
:1005100040F8042B08BF704748BF20F8022B11F0A9
:10052000804F18BF00F8012B704770477047704725
:100530002DE9F0470D4699469246044600F12408FD
:100540000168880604D5E06921F01001216000E00F
:100550000120A84201DD471B00E00027A1697A19AC
:1005600002EB0900081AA0612078C00602D42046D8
:10057000AFF30080002608E0D4E901211AF8060054
:100580009047206A401C761C20624E45F4DB2078A0
:10059000C0060AD52046AFF3008006E0D4E9012169
:1005A00030209047206A401C2062381EA7F10107C6
:1005B000F4DC07E0D4E9012118F805009047206A2F
:1005C000401C2062281EA5F10105F3DC2046AFF394
:1005D00000802078000602D50220BDE8F0870120C7
:1005E000FBE7000001694A1C02610878704700B50A
:1005F0008FB0CDE901310021059105497944CDE95C
:10060000031011466846FFF733FE0FB000BD00002F
:10061000E5FFFFFF0A6802F8010B0A60704710B59A
:10062000203AC0F00B80B1E81850203AA0E81850EA
:10063000B1E81850A0E81850BFF4F5AF5FEA027CAB
:1006400024BFB1E81850A0E8185044BF18C918C01A
:10065000BDE810405FEA827C24BF51F8043B40F8BB
:10066000043B08BF7047D20728BF31F8023B48BFA0
:1006700011F8012B28BF20F8023B48BF00F8012BDE
:100680007047000000487047980700207546FFF744
:10069000F9FFAE4605006946534620F0070085463F
:1006A00018B020B5FFF782FDBDE820404FF00006EE
:1006B0004FF000074FF000084FF0000B21F007014A
:1006C000AC46ACE8C009ACE8C009ACE8C009ACE88D
:1006D000C0098D46704710B50446AFF30080204630
:1006E000BDE81040FFF74EBD01491820ABBEFEE744
:1006F000260002007047FEE7014800F091B80000B4
:1007000054070020014800F08BB8000010070020BB
:1007100030B590F840500124AC40C56B6C60046863
:1007200063604368102B036803D099600068C2605F
:1007300030BD9A600068C16030BD704772B6FEE798
:1007400010B590F821100022022905D00421816300
:1007500080F82020012010BD01680B6823F00E03F3
:100760000B6001680B6823F001030B6090F84030C8
:10077000C46B012101FA03F3636080F8211080F853
:100780002020104610BD000010B590F82110002464
:10079000022903D00421816301243DE001680A6835
:1007A00022F00E020A6001680A6822F001020A6063
:1007B0001A4A0168914201D1012121E0174A1432FD
:1007C000914201D110211BE0144A2832914201D1FB
:1007D000891515E0114A3C32914201D189140FE08C
:1007E0000E4A5032914202D14FF4803108E00B4A58
:1007F0006432914202D14FF4801101E04FF08071D8
:10080000064A083A5160012180F82110002180F841
:100810002010416B01B18847204610BD08000240FE
:100820002DE9F05FC16B0C6801680B68D0F840C01F
:10083000042202FA0CF2494DDFF824A1494E4A4F36
:10084000DFF828B1DFF828E122422CD05A072AD558
:100850000A68920603D40A6822F004020A6001685A
:10086000A94201D1042219E0514501D1402215E0ED
:10087000B14202D14FF4806210E0B94202D14FF48C
:1008800080420BE0594502D14FF4802206E07145C9
:1008900002D14FF4800201E04FF080622F49083905
:1008A0004A60C16A3BE04FF0020808FA0CF818EA07
:1008B000040F4FF000094FF0010235D05FEA837852
:1008C00032D50B689B0605D40B6823F00A030B6036
:1008D00080F821200168A94201D1022219E0514586
:1008E00001D1202215E0B14202D14FF4007210E094
:1008F000B94202D14FF400520BE0594502D14FF4F6
:10090000003206E0714502D14FF4001201E04FF0D1
:100910000072124908394A6080F82090816A0029E3
:100920001AD0BDE8F05F0847082505FA0CF5254206
:1009300012D01B0710D50B6823F00E030B6090F844
:100940004010C36B02FA01F15960826380F82120E4
:1009500080F82090016BE2E7BDE8F09F08000240BC
:100960001C00024030000240440002405800024097
:100970006C00024030B528B308C81349142219444A
:10098000B1FBF2F18900C163104981630221417713
:100990001A6843F6F0718A43D0E900142143D0E984
:1009A00002452C432143046921434469214384695E
:1009B00021431143196000214163012242770177ED
:1009C000084630BD012030BDF8FFFDBF00000240E9
:1009D00070B5044690F82000002501280CD00120B5
:1009E00084F8200094F821600020012E06D084F8BD
:1009F00020000225284670BD022070BD022684F822
:100A00002160A0632068066826F001060660204683
:100A1000FFF77EFEE06A00282068016802D041F0FE
:100A20000E0106E021F0040101602068016841F038
:100A30000A0101602068016841F001010160D9E705
:100A400070B5044600F004F90546601C02D0044865
:100A50000078044400F0FCF8401BA042FAD370BDBB
:100A6000180000202DE9F84FDFF8B8910024A9F113
:100A7000040B23460F2709F1040AABF1040EC9E069
:100A80000125A5402A40AA427DD1674ED1F804C075
:100A9000ACEB0608B44532D014DCBCF1030F3AD0FD
:100AA00009DCBCF1000F2AD0BCF1010F1CD0BCF155
:100AB000020F31D11DE0BCF1110F17D0BCF1120FA4
:100AC0002AD119E0B8F5881F19D006DCB8F5803FA7
:100AD00015D0B8F5801F1FD111E0B8F5001F0ED05A
:100AE000B8F5041F18D10AE0CB6815E0CB681B1DD0
:100AF00012E0CB6808330FE0CB680C330CE08B6856
:100B00002BB1012B4FF0080303D0456104E004230F
:100B100002E0056100E00023FF2A01D8064601E05B
:100B200000F104064FEA840501D9A5F12005D6F8A5
:100B3000008007FA05FC28EA0C0803FA05F548EAE4
:100B40000508C6F800804D68ED0062D5374DAE69E6
:100B500046F00106AE61AD6924F0030605F001051B
:100B60000095334D06EB050CDCF80850A607360F50
:100B700007FA06F825EA0805DFF8B880404503D1F2
:100B80004FF0000817E044E0DFF8AC80404502D1A8
:100B90004FF001080FE0DFF8A480404502D14FF08C
:100BA000020808E0DFF89880404502D14FF00308C2
:100BB00001E04FF0040808FA06F848EA0508CCF806
:100BC00008804D68D9F80060ED024D4601D5164306
:100BD00000E096432E604D68DAF80060AD0255469D
:100BE00001D5164300E096432E604D68DBF80060A7
:100BF000AD035D4601D5164300E096432E604D6877
:100C0000DEF80060ED03754601D5164300E096431B
:100C10002E60641C0D682A46E5407FF431AFBDE8C4
:100C2000F88F00000804014000001110001002407D
:100C30000000014000080140000C0140001001408C
:100C4000001401400AB1016170470904FBE700008C
:100C500001488068704700001800002070B504004B
:100C600025D094F83D00002520B984F83C5020465A
:100C700000F00EFB242084F83D002068016821F07C
:100C8000010101602068016841F4004101602068B1
:100C9000016821F40041016000F074FC4D4A616874
:100CA000914201D84C4900E04C49884201D20120D0
:100CB00070BD4B492368B0FBF1F15E6826F03F063A
:100CC0000E435E606368934206D94FF496735943AE
:100CD0004FF47A73B1FBF3F12368491C1E6A26F0C6
:100CE0003F06314319626168914210D84900401EA5
:100CF000B0FBF1F2521CC2F30B02042A01D2042011
:100D000022E0B0FBF1F0401CC0F30B001CE0A26835
:100D1000F2B301EBC10303EB0116431EB3FBF6F381
:100D20005B1C43F480431B0549D092B301EBC10225
:100D300002EB0111401EB0FBF1F0401CC0F30B00B0
:100D400040F4804040F400402168CA694CF6FF73CB
:100D50009A431043C861D4E9071001432068026830
:100D600022F0C00211430160D4E90301014320686D
:100D7000826848F2FF339A4311438160D4E9050148
:100D800008432168CA6822F0FF021043C86001E0EE
:100D90000EE016E02068016841F001010160256461
:100DA000202084F83D00256384F83E50002070BD6B
:100DB00001EB4106431EB3FBF6F35B1CB3E70120D6
:100DC000C2E701EB4101401EB0FBF1F0401CC0F353
:100DD0000B00B7E7A086010080841E0000093D00DB
:100DE00040420F002DE9F84F1F4690468A460446C0
:100DF000DDF82890FFF72CFF054694F83D002028E9
:100E00007FD11923012240492046009501F0C0FE00
:100E1000002876D194F83C00012872D0012084F893
:100E20003C0020680168C90703D1016841F0010155
:100E300001602068016821F400610160212084F8CC
:100E40003D00102084F83E0000262664C4F824806B
:100E50006785608D20852D48E0622B464A465146C5
:100E6000204601F049FD90B92068416980690090F1
:100E700036E02A464946204601F068FF50B1206C12
:100E8000042804D12068016841F400710160012048
:100E9000BDE8F88F606A216800780861606A401CCC
:100EA0006062618D491E6185218D491E89B221854F
:100EB00022685369DB435B070BD451B100781061A2
:100EC000606A401C6062608D401E6085208D401EFF
:100ED00020852A464946204601F02EFE0028CED124
:100EE000208D0028C5D154F83D0B016841F40071F4
:100EF0000160202004F81E09E67766770020C7E726
:100F0000FFE70220C4E70000020010000000FFFF1E
:100F10002DE9FF4F83B00025DDE910799A4693460D
:100F20000446DDF848800095FFF792FE064694F8E7
:100F30003D0020287CD119230122854920460096B6
:100F400001F026FE0028F5D194F83C0001286FD06E
:100F5000012084F83C0020680168C90703D10168BA
:100F600041F0010101602068016821F40061016025
:100F7000222084F83D00402084F83E00256467620A
:100F8000A4F82A90608D20857248E062CDE9008641
:100F900053465A462046049901F0FCFC00287DD1B6
:100FA000208DDFF8B491202768B1012814D00228E1
:100FB000206801681ED041F48061016020684169A9
:100FC00080690090B6E020684169816900910168FC
:100FD00041F400710160ADE02068016821F4806196
:100FE000016072B62068416981690091016841F42D
:100FF00000710AE041F40061016072B62068416945
:1010000081690091016821F48061016062B691E01C
:10101000032868D801280CD0022843464FF000026C
:101020004946204600960FD001F0B2FDB0BB10E05B
:101030008BE032464146204601F050FE70BB2068EE
:101040000069616A08706CE001F0A2FD30BB72B605
:1010500034E02068016821F48061016072B6206884
:101060000069616A0870606A401C6062208D401EE1
:101070002085608D401E6085384846F2A8110068C2
:10108000B0FBF1F0C0EBC00000EB80000090401E10
:10109000009008D020684069C04300E029E0400784
:1010A0000CD50098F3E744F8305F6773A5732069A7
:1010B00040F02000206162B625731AE020680168C4
:1010C00041F40071016020680069616A0870606A1B
:1010D000401C6062218D491E2185618D491E6185FC
:1010E00062B621681BE032464146204601F0F6FD1B
:1010F00018B1012007B0BDE8F08F20680069616A6F
:101100000870606A401C6062218D491E2185618DD6
:10111000491E618521684A69D24352070AD4096988
:101120000170606A401C6062208D401E2085608DC9
:10113000401E6085208D00287FF46AAF84F83D70E2
:1011400084F83E5084F83C50D4E70220D2E70000F7
:10115000020010000000FFFF040001002400002036
:101160002DE9FF4F83B09A46DDE911979346044677
:10117000DDF84080FFF76CFD054694F83D0020281F
:101180007FD11923012240492046009501F000FD3E
:10119000002876D194F83C00012872D0012084F810
:1011A0003C0020680168C90703D1016841F00101D2
:1011B00001602068016821F400610160212084F849
:1011C0003D00402084F83E0000262664C4F82480B8
:1011D000A4F82A90608D20852C48E062CDE9007546
:1011E00053465A462046049901F052FC70B930E04B
:1011F0002A463946204601F0A9FD58B1206C042842
:1012000004D12068016841F400710160012007B039
:10121000BDE8F08F606A216800780861606A401C50
:101220006062218D491E89B22185628D521E6285C0
:1012300022685369DB435B070BD469B10078106106
:10124000606A401C6062208D401E2085608D401EBB
:101250006085208D0028CBD12A463946204601F0F2
:101260006BFC0028CAD154F83D0B016841F40071B1
:101270000160202004F81E09E67766770020C6E7A3
:10128000FFE70220C3E70000020010000000FFFF9C
:1012900030B585B0002100910191029103911E4D5E
:1012A00003681E4C122103221D48AB4216D1A369CC
:1012B00043F00803A361A369039203F008030493B6
:1012C000C023CDE900316946FFF7CCFBE06940F46B
:1012D0000010E061E06900F4001019E0114DAB422C
:1012E00017D1A36943F00803A361A369039203F034
:1012F000080304934FF44063CDE900316946FFF7DA
:10130000B1FBE06940F48000E061E06900F4800036
:10131000049005B030BD00000054004000100240B1
:10132000000C0140005800400248816802781144D6
:101330008160704718000020074810B5016841F02F
:1013400010010160032000F075F80F2000F006F88E
:1013500000F024F8002010BD0020024070B50D4DB3
:1013600004464FF47A712878B1FBF0F00A49096815
:10137000B1FBF0F000F0DCFA48B9102C07D20022E3
:101380002146501E00F036F800206C6070BD012030
:1013900070BD000018000020240000200C4808B593
:1013A000816941F001018161816901F001010091D0
:1013B000C16941F08051C161C06900F08050009066
:1013C0000448416821F0E06141F00071416008BDCE
:1013D0000010024000000140002809DB00F01F025D
:1013E000012191404009800000F1E020C0F8001187
:1013F00070470000F0B40E4B1B680C46C3F3022389
:10140000C3F10705042D00D90425191D072901D2B0
:10141000002300E0DB1E012606FA05F1491E2140EB
:1014200099409E40761E16403143F0BC02F051BCFC
:101430000CED00E0064900F0070208684FF6FF03D4
:10144000184040EA0220034A104308607047000039
:101450000CED00E00000FA052DE9F0470F4605000D
:1014600061D0434E306800F00700B84209D23068BE
:1014700020F0070038433060306800F00700B842C1
:1014800051D128683B4C810712D5400703D56068CD
:1014900040F4E06060602878000703D5606840F49D
:1014A000605060606068A96820F0F00008436060E8
:1014B0002878C00728D06868012810D02168022841
:1014C00010D0890700292EDA616821F00301014359
:1014D0006160FFF7BDFB804641F288390DE021686D
:1014E0008903EFE78901EDE7FFF7B2FBA0EB080105
:1014F000494502D90320BDE8F0876068696800F0BB
:101500000C00B0EB810FEFD1306800F00700B8425B
:101510000BD9306820F0070038433060306800F0A5
:101520000700B84201D00120E5E72878400705D53B
:101530006068E96820F4E06008436060287800078C
:1015400006D56068296920F4605040EAC1006060F7
:1015500000F038F86168084AC1F30311515CC840D3
:101560000649086006480068FFF7F8FE0020C2E759
:101570000020024000100240E24200082400002047
:101580001C0000200448054900684968044AC1F36A
:101590000221515CC8407047240000200010024026
:1015A000F24200080448054900684968044AC1F34A
:1015B000C221515CC8407047240000200010024046
:1015C000F24200080E4A51680E4801F00C03042B49
:1015D00011D0082B0FD10C48C1F38343C903C05C61
:1015E0000AD55168084AC1F34041921E515C054A30
:1015F0005043B0FBF1F07047044948437047000086
:101600000010024000127A00D242000800093D009A
:101610002DE9F84F040070D02078C04DC00749D0A4
:101620006868C0F38100012807D06868C0F38100B2
:10163000022809D16868C00306D52868800339D517
:1016400060680028E7D035E06068B0F5803F0BD0D7
:1016500010B1B0F5A02F11D0286820F48030286098
:10166000286820F4802002E0286840F48030286058
:10167000606890B1FFF7ECFA06460AE0286840F48B
:1016800080202860F0E700BFFFF7E2FA801B6428A3
:1016900073D828688003F7D50CE0FFF7D9FA06461F
:1016A00005E000BFFFF7D4FA801B6428F0D8286853
:1016B0008003F7D420789A4E80074FF001094FF04D
:1016C000000839D5686810F00C0F07D06868C0F3BF
:1016D0008100022809D16868C00306D42868800701
:1016E00014D52069012808D110E02069B0B1C6F8EE
:1016F0000090FFF7ADFA074605E00AE1FFF7A8FA08
:10170000C01B0228C4D828688007F7D528686169FB
:1017100020F0F80040EAC10028600DE0C6F8008023
:10172000FFF796FA074604E0FFF792FAC01B02287B
:1017300023D828688007F7D4207800072CD579486B
:10174000A169D9B1C0F80090FFF782FA074604E01A
:10175000FFF77EFAC01B02280FD8686A8007F7D50A
:1017600071484FF4FA510068B0FBF1F0009000BFEF
:101770000098411E0091FAD20EE080E0C0F800808F
:10178000FFF766FA074604E0FFF762FAC01B02287B
:1017900075D8686A8007F7D42078400760D5E86973
:1017A0000027C00008D4E86940F08050E861E8698B
:1017B000012700F0805000905C480168C90513D4EF
:1017C0000168834641F480710160FFF741FA824667
:1017D00006E000BFFFF73CFAA0EB0A0064284ED8F1
:1017E000DBF80000C005F5D5E06801280AD008B193
:1017F000052813D0286A20F001002862286A20F00A
:10180000040002E0286A40F001002862E06841F22A
:10181000883B98B1FFF71CFA82460BE0286A40F03B
:1018200004002862EEE700BFFFF712FAA0EB0A01FE
:1018300059455AD8286A8007F6D50CE0FFF708FA10
:10184000824605E0FFF704FAA0EB0A0159454CD89F
:10185000286A8007F6D41FB1E86920F08050E8615B
:10186000E06988B36968C1F38101022944D0022884
:10187000C6F8608004D0FFF7EBF9044638E034E0A6
:10188000FFF7E6F9074604E0FFF7E2F9C01B02287C
:101890002BD828688001F7D4206AB0F5803F05D1A5
:1018A0006868A16820F4003008436860D4E9080142
:1018B0000843696821F4741108436860C6F86090B1
:1018C000FFF7C6F9044606E025E000BFFFF7C0F9C0
:1018D000001B022809D828688001F7D51BE000BF4B
:1018E000FFF7B6F9001B022802D90320BDE8F88FE4
:1018F00028688001F4D40EE00128F7D06868226AD5
:1019000000F48031914204D1616A00F47010884281
:1019100001D00120EAE70020E8E7000000100240C3
:101920000000424280044242240000200070004037
:1019300010B5401EB0F1807F01D3012010BD4FF0E3
:10194000E02460610F21601702F0C3F90020A0615C
:1019500007202061002010BD7047704770B590F8D7
:101960003C20012A26D0012480F83C40022280F845
:101970003D2003685A689D6822F070060A68324369
:101980005A600D4B02689A4208D0B2F1804F05D0E0
:101990000A4B9A4202D00A4B9A4204D1496825F078
:1019A00080031943916080F83D40002180F83C108D
:1019B000084670BD022070BD002C014000040040AC
:1019C0000008004010B5040003D094F83D0010B1A9
:1019D00007E0012010BD002084F83C00204600F004
:1019E0001FF8022084F83D00211D206801F028FE28
:1019F000012084F8460084F83E0084F83F0084F813
:101A0000400084F8410084F8420084F8430084F8E0
:101A1000440084F8450084F83D00002010BD00001B
:101A200000B585B0002100910191029103911C4AFB
:101A300001681C4891420ED1816941F400618161C5
:101A40008069002200F40060049011461820FFF71E
:101A5000D1FC182020E0B1F1804F1FD1C16941F0C5
:101A60000101C161C16901F001010491816941F085
:101A7000040181618069694600F0040004900C2033
:101A80000090022002900848FEF7ECFF0022114669
:101A90001C20FFF7AFFC1C20FFF79EFC05B000BD2B
:101AA000002C0140001002400008014070B50446BF
:101AB00090F83C000025012817D0012684F83C60EE
:101AC000022084F83D002068826822F0770222F428
:101AD0007F4282600868502838D00DDC20284FD023
:101AE00005DC90B3102811D14AE0022070BD3028E7
:101AF00046D040280AD13BE060282FD070280DD076
:101B0000B0F5805F03D0B0F5005F12D0012584F8F6
:101B10003D60002084F83C00284670BDCB68D1E9C8
:101B20000121206801F0CFFD2068816841F0770134
:101B300009E0CB68D1E90121206801F0C4FD2068EB
:101B4000816841F480418160E1E719E0CA68496831
:101B5000206801F06DFE5021206806E0CA684968DF
:101B6000206801F0A3FE6021206801F0B6FDCEE7F9
:101B7000CA684968206801F05BFE40212068F4E7EC
:101B8000226801461046F0E770B50068B0F1804F5A
:101B900012D1124C124D207801280ED002280BD100
:101BA0000821104800F0DEFB686008210D4800F0B5
:101BB00083F92078401C207070BD0821094800F08E
:101BC000D1FB2860074801680A6A22F400720A62A1
:101BD0000068016A41F400710162EAE70400002034
:101BE000AC040020F00500202DE9F041054690F8F6
:101BF0003C0000260C46012810D0012085F83C004E
:101C000072B1042A1CD0082A2CD00C2A50D00126EC
:101C1000002085F83C003046BDE8F0810220FBE75B
:101C2000D4E90012E368286801F014FE286881698D
:101C300021F00C01816128688169A26811430FE0DD
:101C4000D4E90012E368286801F042FE286881693F
:101C500021F44061816128688169A26841EA02211A
:101C60008161D5E72868D4E9002C277B036A016AE3
:101C700021F480710162C16923F4007321F0030132
:101C800041EA0C0121F0F00C39074FF400774CEADF
:101C9000116107EA02221A43C16102622868C16920
:101CA00021F00C01C1612868C169A26811432BE0D1
:101CB0002868D4E90021E768036AD0F820C02CF432
:101CC000805CC0F820C0D0F81CC023F400532CF472
:101CD000407C4CEA012121F4704C4FF6FF7101EA7F
:101CE00007314FF4005741EA0C0107EA02321A4368
:101CF000C16102622868C16921F44061C16128683C
:101D0000C169A26841EA0221C16181E710B50400FE
:101D100003D094F83D0010B107E0012010BD002071
:101D200084F83C00204600F01FF8022084F83D00B3
:101D3000211D206801F084FC012084F8460084F80D
:101D40003E0084F83F0084F8400084F8410084F8A5
:101D5000420084F8430084F8440084F8450084F885
:101D60003D00002010BD000000B585B000210091AD
:101D700001910291039100681349884221D11348CF
:101D8000C16941F00401C161C16901F0040104911C
:101D9000816941F0080181618069694600F00800AD
:101DA00004904FF440700090022002900848FEF723
:101DB00059FE002211461E20FFF71CFB1E20FFF7D4
:101DC0000BFB05B000BD0000000800400010024001
:101DD000000C014030B50446002551B104290DD056
:101DE000082910D094F8410094F84520012811D119
:101DF0000EE094F83E0094F84220F7E794F83F0094
:101E000094F84320F2E794F8400094F84420EDE77A
:101E1000012A01D0012030BD022059B1042912D07D
:101E2000082919D084F8410084F845000C2938D0DD
:101E3000012534E084F83E0084F842002068C2683E
:101E400042F0020210E084F83F0084F8430020686A
:101E5000C26842F0040207E084F8400084F84400BD
:101E60002068C26842F00802C2600122206801F0C6
:101E70001DFC0E492068884208D0B0F1804F05D083
:101E80000B49884202D00B49884204D1816801F095
:101E90000701062903D0016841F0010101602846CD
:101EA00030BD2068C26842F01002DDE7002C01401E
:101EB000000400400008004070B50D0004464FF0DB
:101EC000000607D0042D0AD0082D0DD00C2D10D0FF
:101ED00001262FE02068C16821F002010DE0206892
:101EE000C16821F0040108E02068C16821F0080100
:101EF00003E02068C16821F01001C160002229467A
:101F0000206801F0D3FB2068016A41F211121142EE
:101F100007D1016A9210114203D1016821F0010139
:101F20000160012045B1042D09D0082D0AD004F824
:101F3000410F2071304670BD04F83E0FF9E704F8F8
:101F40003F0FF6E704F8400FF3E770B5044600686A
:101F500001694FF00005C943890715D4C168C94319
:101F6000890711D4E91E016101202077206880696A
:101F70008007204602D0FFF707FE04E000F0C8F813
:101F8000204600F077F9257720680169C9434907A1
:101F900017D4C168C943490713D46FF00401016124
:101FA000022020772068806910F4407F204602D00C
:101FB000FFF7EAFD04E000F0ABF8204600F05AF924
:101FC000257720680169C943090716D4C168C94348
:101FD000090712D46FF008010161042020772068FE
:101FE000C0698007204602D0FFF7CEFD04E000F074
:101FF0008FF8204600F03EF9257720680169C94333
:10200000C90617D4C168C943C90613D46FF01001BB
:102010000161082020772068C06910F4407F2046C5
:1020200002D0FFF7B1FD04E000F072F8204600F0A6
:1020300021F9257720680169C943C90708D1C1681A
:10204000C943C90704D1891E0161204600F062F925
:1020500020680169C943090609D4C168C943090652
:1020600005D46FF0800101612046FFF775FC206800
:102070000169C943490609D4C168C943490605D461
:102080006FF040010161204600F081F9206801698C
:10209000C94389060BD4C168C943890607D46FF0C8
:1020A000200101612046BDE87040FFF756BC70BDBD
:1020B00000B585B000210091019102910391006863
:1020C0000F49884219D10F48816941F008018161A7
:1020D0008069022100F0080004900320CDE900018E
:1020E000039069460848FEF7BDFC0821074800F048
:1020F000C3F80C21054800F0BFF805B000BD000092
:102100000004004000100240000C0140380600208E
:10211000704770B5044690F83C0000260D46012833
:102120000FD0012084F83C006AB1042A1DD0082A8F
:102130002FD00C2A3FD00126002084F83C003046E6
:1021400070BD022070BD206801F0D0FA206881695E
:1021500041F0080181612068816921F004018161F9
:10216000206881692A69114311E0206801F0E6FACC
:102170002068816941F4006181612068816921F4EE
:1021800080618161206881692A6941EA0221816157
:10219000D2E7206801F0FEFA2068C16941F0080129
:1021A000C1612068C16921F00401C1612068C16971
:1021B0002A69114311E0206801F018FB2068C16909
:1021C00041F40061C1612068C16921F48061C1618D
:1021D0002068C1692A6941EA0221C161ACE710B5F2
:1021E000040003D094F83D0010B107E0012010BDB9
:1021F000002084F83C00204600F01EF8022084F8FD
:102200003D00211D206801F01BFA012084F84600E2
:1022100084F83E0084F83F0084F8400084F84100D0
:1022200084F8420084F8430084F8440084F84500B0
:1022300084F83D00002010BD08B500680B498842B5
:1022400012D10B48C16941F00201C161C06900228D
:1022500000F00200009011461D20FFF7CBF8BDE80A
:1022600008401D20FFF7B8B808BD0000000400407A
:10227000001002407047000010B50446022249B128
:1022800004290ED0082913D094F84100012816D053
:10229000012010BD94F83E000128F9D184F83E20B9
:1022A0000FE094F83F000128F2D184F83F2008E0C5
:1022B00094F840000128EBD184F8402001E084F834
:1022C00041200122206801F0F1F90F49206888427D
:1022D00003D1426C42F4004242642068884208D034
:1022E000B0F1804F05D00949884202D008498842A0
:1022F00004D1816801F00701062903D0016841F08B
:1023000001010160002010BD002C014000040040CC
:10231000000800401CB500680D49884216D10D4CDC
:10232000A078401CC0B2A070F4280FD100F0F8FFD4
:1023300000210948CDE90001637808A21521012098
:1023400001F01DF8BDE81C4001F00AB91CBD0000F9
:10235000002C014004000020C8420008737065652D
:10236000640000000246002041B1042909D0082978
:102370000AD00C2901D11068006C70471068406BBE
:1023800070471068806B70471068C06B704770476B
:1023900038B5044690F84200202801D0022038BD0C
:1023A00061B15AB10120206300206063204601F032
:1023B00041FC0028F3D1216B012901D0012038BD57
:1023C00021680A684968009121680C3151E8002FA2
:1023D00042F0100241E80023002BF5D138BD000087
:1023E0002DE9F0410C46284988424AD12246274926
:1023F000254800F02BFA254D2878AA2836D1687890
:10240000A04233D100210846661E03E02A5C401C2E
:102410001144C9B2B042F9DB281910F8010C884206
:1024200024D102241A4F1FE0285D012804D002287D
:1024300008D003280DD016E001F0F2FC1E2001F0B8
:102440005FFC10E0002210213846FEF7FBFB012262
:1024500005E0002210213846FEF7F4FB002220217F
:102460003846FEF7EFFB641CB442DDDB322207493D
:102470000548FFF78DFF07480068016821F0040157
:102480000160BDE8F0810000C8060020B80400200B
:10249000000801401007002070470000F8B50168EF
:1024A00004460868CA684B6910F00F0F4FF000052A
:1024B00059D003F0010602F49077374365D0C10785
:1024C00005D0D10503D5616C41F00101616441077C
:1024D00005D5D90703D0616C41F002016164810721
:1024E00005D5D90703D0616C41F00401616401078F
:1024F00007D502F02001314303D0616C41F008019F
:102500006164616C00293AD0800604D5900602D53A
:10251000204601F0D2FA20684069616CC0F3801057
:10252000090700D460B3204601F092FA20684069A0
:10253000400621D52068143050E8001F21F04001EA
:1025400040E80012002AF5D1E06BA8B16D49416363
:10255000E06BFEF719F9002811D0E06B416B01B078
:10256000BDE8F040084783060FD593060DD52046F9
:10257000BDE8F84001F0A1BA2046FFF78DFFF8BD95
:102580002046FFF789FF6564F8BD266B2023012EE6
:102590007CD1C6067AD5D60678D5086848680090FA
:1025A00048694FF00206400640D5E16B0868406874
:1025B0000004000CE8D0A28D8242E5D9E08588694C
:1025C00020282DD020680C3050E8001F21F48071A5
:1025D00040E80012002AF5D12068143050E8001FAE
:1025E00021F0010140E80012002AF5D120681430E2
:1025F00050E8001F21F0400140E80012002AF5D108
:1026000084F84230256320680C3050E8001F21F028
:10261000100140E80012002AF5D1E06BFEF790F8B7
:102620006663A08DE18D401A81B22AE0A08DE18D14
:10263000401A81B2E08D0028A6D00029A4D02268DB
:102640000C3252E8000F20F4907042E80007002F8F
:10265000F5D12068143050E8002F22F0010240E844
:102660000027002FF5D184F84230256320680C3014
:1026700050E8002F22F0100240E80023002BF5D193
:1026800066632046FFF7ACFEF8BDFFE705062BD5D5
:10269000150629D594F841002128F5D1A068B0F598
:1026A000805F01D12069B0B1206A411C216221689C
:1026B00000784860E08C401E0004000CE084E3D108
:1026C0002068C16821F08001C1602068C16841F0C4
:1026D0004001C160D8E7206A0088C0F30800486064
:1026E000206A801C2062E5E74006CDD55006CBD598
:1026F000CA68204622F04002CA6084F8413000F0E7
:10270000E1F8C1E70739000870B5040004D094F877
:102710004100002510B106E0012070BD84F8405052
:10272000204600F023F8242084F841002068C16886
:1027300021F40051C160204601F020FA20680169AF
:1027400021F4904101612068416921F02A01416131
:102750002068C16841F40051C1606564202084F89C
:10276000410084F842006563002070BDF0B585B07B
:1027700000240646009401940294039400682D49B5
:10278000884254D12C48816941F48041816181693A
:1027900001F480410491816941F004018161806903
:1027A000264D00F0040004904FF4007000900220C9
:1027B00001900320039069462846FEF753F9281537
:1027C000CDE90004694628460294FEF74BF91D4DF9
:1027D0001B488027C5E90004C5E902472C616C61EC
:1027E000AC612846EC61FEF7C5F808B1FDF7A6FF1D
:1027F000F5636E62134D12484435143801C510203C
:1028000091C5104845F8104944306C61AC61EC61E9
:10281000FEF7B0F808B1FDF791FFB563002211464D
:1028200025206E62FEF7E6FD2520FEF7D5FD05B0FA
:10283000F0BD0000003801400010024000080140D7
:1028400058000240100700207047704770B50446DA
:1028500090F84100202801D0022070BD49B342B356
:102860002162A284E28400206064212384F8413044
:10287000A56B114BAB62A56B104BEB62A56B104BBC
:102880002B63A36B5863256813462A1DA06BFEF7C4
:102890009FF821686FF0400008602068143050E80D
:1028A000001F41F0800140E80012002AF5D100200D
:1028B00070BD012070BD0000053A0008473A0008CD
:1028C0001739000870477047FEE701684A69D2432C
:1028D00052050FD46FF480624A61002140F8301F26
:1028E000202242738173026942F004020261017383
:1028F0000120704700207047F8B50446C06A1E46A4
:102900000D461746082807D0012805D010F5803F4E
:1029100002D0206B122804D12068016841F4807134
:102920000160134600224FF001112046009600F08E
:102930002FF940B120680068C00502D54FF400703F
:1029400020640320F8BD2069B0F5804F0ED006202A
:10295000216800EAD51040F0F000086133463A469D
:102960000B49204600F05CF978B902E005F0FE0062
:1029700000E0E8B221680861054933463A46891FFC
:10298000204600F04DF90028DCD00120F8BD000001
:10299000080001002DE9F84F0446006889460B9DA8
:1029A00001689846174641F480610160206801681B
:1029B00041F48071016000954FF0011B00225946DF
:1029C00020460A9B00F0E4F84FF4007A40B12068FA
:1029D0000068C00501D5C4F840A00320BDE8F88F09
:1029E000216809F0FE0008612B46284920460A9A12
:1029F00000F016F9F0BB20684169806900902A4612
:102A000020460A9900F0A2F940B1206C04283AD17E
:102A10002068016841F40071016034E0FEB2B8F151
:102A2000010F09D02168380A08612A4620460A9910
:102A300000F08CF90028E8D1206806612A4620467B
:102A40000A9900F083F90028DFD12068016841F479
:102A50008071016000950022594620460A9B00F0D3
:102A600097F80028B3D1216809F0FF0040F0010079
:102A7000086100E007E02B46044920460A9A00F06E
:102A8000CFF80028AAD00120A8E70000020001002A
:102A90002DE9F843044600680D46DDE90897016812
:102AA0009846164641F4807101604B4600224FF073
:102AB00001112046009700F06BF848B120680068CB
:102AC000C00502D54FF4007020640320BDE8F883F0
:102AD000216805F0FE0008613B464A46154920463C
:102AE00000F09EF888B920684169806900903A46F4
:102AF0004946204600F02AF948B1206C042804D148
:102B00002068016841F4007101600120DEE7F5B240
:102B1000B8F1010F09D02168300A08613A464946E8
:102B2000204600F013F90028E7D120680561002055
:102B3000CCE700000200010070B516460D460446C1
:102B40001EE02046FFF7C1FE08B1012070BD681CE1
:102B500016D0FEF77DF8801BA84200D885B9206802
:102B60004069C04340070BD5002044F8300F2021B6
:102B70006173A073216941F0200121612073E4E7B2
:102B800020684069C0434007DBD4002070BD0000CE
:102B90002DE9F047984617460D460446C1F307460F
:102BA000DDF820902AE000BFB8F1FF3F26D0FEF705
:102BB0004FF8A0EB0901414502D8B8F1000F1DD133
:102BC0002068012E16D0806925EA00000004000C60
:102BD00012D00020B84211D1002044F8300F20213B
:102BE0006173A073216941F02001216120730120EC
:102BF000BDE8F0874069E7E70120EBE72068012E98
:102C00000AD0806925EA00000004000C06D00020EC
:102C1000B842C9D00020EBE74069F3E70120F7E7AD
:102C20002DE9F047984616460D4604464FF0000938
:102C30004FF0200AC1F3074723E020684069C043F2
:102C4000400515D42068016841F4007101602168D5
:102C50006FF480604861C4F8309084F83DA084F837
:102C60003E90216C41F00401216484F83C9021E005
:102C7000701C06D0FDF7ECFFA0EB0800B04203D8B3
:102C800016B1012F1FD021E02068012F15D08069D7
:102C900025EA00000004000C18D000BF44F8309F63
:102CA00084F80DA084F80E90216941F02001216183
:102CB00084F80C900120BDE8F087406925EA000007
:102CC0000004000CEAD12068406901E020688069B6
:102CD00025EA00000004000CAFD1ECE72DE9F0413B
:102CE000002590460E460446202728E04069C04350
:102CF000C0060CD454F8301B6FF01000486144F843
:102D000010596777A577206A2062257714E0FDF7D0
:102D10009FFFA0EB0800B04200D886B92068406948
:102D2000C04340060BD544F8305F6773A573206934
:102D300040F02000206125730120BDE8F08120686B
:102D40004169C9434906D1D40020F6E770B516465B
:102D50000D4604461EE02046FFF7B7FD08B10120EE
:102D600070BD681C16D0FDF773FF801BA84200D809
:102D700085B920684069C04300060BD5002044F89F
:102D8000300F20216173A073216941F0200121617E
:102D90002073E4E720684069C0430006DBD40020CC
:102DA00070BD38B5002504468DF8005080226B2197
:102DB00000F06CF86420FDF743FE00226B212046F2
:102DC00000F064F800221921204600F05FF8032289
:102DD0001A21204600F05AF80021204600F02AF877
:102DE0000021204600F03CF800222321204600F07C
:102DF0004DF800226B21204600F048F801236A4676
:102E00007521204600F009F89DF80000682801D0DF
:102E1000657238BD0120607238BD3EB54FF47A74DA
:102E20008DE81C0004790A46006801232146FEF75C
:102E30006FF83EBD70B50C0005460BD0012C0BD0D1
:102E4000022C0BD0032C04D118221C2100F01EF8F8
:102E5000EC7170BD0022F8E70822F6E71022F4E7D3
:102E600070B50C0005460BD0012C0BD0022C0BD0FA
:102E7000032C04D118221B2100F008F82C7270BD1D
:102E80000022F8E70822F6E71022F4E717B583B02E
:102E90004FF47A74012305AA8DE81C0004790A46D0
:102EA00000682146FEF75CF906B010BD0D4808B574
:102EB000416941F0010141614069002200F00100D7
:102EC000009011460E20FEF795FA0E20FEF784FAC8
:102ED000002211460F20FEF78DFABDE808400F20B2
:102EE000FEF77ABA001002402DE9F04186B00020CA
:102EF00000900190029003902348816941F01001F5
:102F00008161816901F010010491816941F0200122
:102F10008161816901F020010491816941F004011E
:102F20008161816901F004010491816941F0080126
:102F300081618069154F00F0080004900022F021A3
:102F40003846FDF77FFEDFF848804FF4E046002268
:102F500031464046FDF776FEF0200125CDE900051B
:102F600002240320CDE9024069463846FDF77AFD88
:102F70000096CDE90154694640460394FDF772FD81
:102F800006B0BDE8F08100000010024000080140DA
:102F9000000C01400D4810B50B4901600C4941601F
:102FA00000214FF480428160C0E9031241618161D8
:102FB000C1610162FDF752FE002803D0BDE8104058
:102FC000FDF7BCBB10BD0000005400400005002010
:102FD000801A06000D4810B50B4901600C4941608C
:102FE00000214FF480428160C0E903124161816198
:102FF000C1610162FDF732FE002803D0BDE8104038
:10300000FDF79CBB10BD0000005800405405002097
:10301000A086010010B586B00024184800940194E1
:103020000294039404941449059401604FF461617F
:10303000C0E9011442F21071C0E9031444618461D3
:10304000FEF7C0FC08B1FDF779FB4FF4805000900B
:1030500069460A48FEF72AFD08B1FDF76FFB0494A4
:1030600004A906480594FEF779FC002801D0FDF775
:1030700065FB06B010BD0000002C0140A805002033
:1030800010B58AB000242748049405940694079448
:10309000089409940094019402944FF080410394A1
:1030A00001604721C0E901144FF6FF71C0E9031424
:1030B00080218161FEF786FC08B1FDF73FFB4FF4EC
:1030C0008050049004A91748FEF7F0FC08B1FDF702
:1030D00035FB1448FEF71AFE08B1FDF72FFB202040
:1030E000CDE9080408A90F48FEF738FC08B1FDF740
:1030F00025FB0120CDE900400820CDE90240024631
:1031000069460848FEF770FD08B1FDF717FB0C2271
:1031100069460448FEF768FD002801D0FDF70EFB64
:103120000AB010BDF005002010B58AB00024079445
:103130001C2168460894FDF7D1F91B481949016024
:1031400040F2CF21C0E901146321C0E903148021BA
:103150008161FFF744F808B1FDF7F0FA079407A979
:1031600011480894FEF7FAFB08B1FDF7E7FA602072
:10317000CDE900040294082269460B480494FEF746
:10318000C8FF08B1FDF7DAFA0C2269460648FEF7D7
:10319000C0FF08B1FDF7D2FA0348FEF789FF0AB075
:1031A00010BD0000000400403806002010B586B0B5
:1031B00000241D4805940494009401940294194934
:1031C000039401604721C0E901144FF6FF71C0E983
:1031D000031480218161FEF799FD08B1FDF7AEFA75
:1031E000049404A910480594FEF7B8FB08B1FDF754
:1031F000A5FA0120CDE900400820CDE902400246B1
:1032000069460948FEF7F0FC08B1FDF797FA0C2271
:1032100069460548FEF7E8FC002801D0FDF78EFA64
:1032200006B010BD00080040800600200C4810B514
:103230000A4901604FF416514160002181600C225F
:10324000C160C0E904128161C161FFF75DFA002825
:1032500003D0BDE81040FDF771BA10BD0038014041
:10326000C8060020FEE7FEE710B5AE2000F0B0F87B
:10327000202000F0ADF8102000F0AAF8B02000F0F7
:10328000A7F8C82000F0A4F8002000F0A1F8102052
:1032900000F09EF8402000F09BF8812000F098F8A4
:1032A000DF2000F095F8A12000F092F8A62000F0B1
:1032B0008FF8A82000F08CF83F2000F089F8A420B7
:1032C00000F086F8D32000F083F8002000F080F8AA
:1032D000D52000F07DF8F02000F07AF8D92000F039
:1032E00077F8222000F074F8DA2000F071F812204C
:1032F00000F06EF8DB2000F06BF8202000F068F89A
:103300008D2000F065F8142000F062F800F008F855
:1033100000F026F9BDE81040AF2000F059B80000D9
:103320004FF480610148FDF7B7B80000A900002004
:103330003CB51C78059D203ACDE900455D68E41D4B
:103340005B78E408544303FB045200F0A1F83CBD51
:103350002DE9F8411E46154688460446079F09E0B8
:103360003346414620460097FFF7E2FF70786D1C18
:103370002044C4B22A78002AF2D1BDE8F8812DE9B0
:10338000F8439946DDE9086590460F460446334602
:103390000095FFF7DDFF4046FDF71AF871783346D8
:1033A00000FB0140C0B24A4639460095FFF7D0FF06
:1033B000BDE8F88308B54FF0FF3200920B46024695
:1033C00078210248FDF70EFD08BD00000005002031
:1033D0000249487002210148FFF7ECBF02000020BB
:1033E0002DE9FC4180460720CDE9000301F00704E8
:1033F000CD08164602FA04F01F46C2B223464146E3
:10340000284600F089F8002C0CD0601EC0B2CDE92F
:103410000007C4F1080026FA00F2681C00234146A8
:1034200000F07AF8BDE8FC812DE9FC4301F00706C5
:103430001446CD089846814601F0070106EB0802C4
:1034400004FA01F0099F082A16D90721CDE90017CF
:10345000C2B233464946284600F05EF808EB060043
:103460000938C0B2CDE90007C6F1080024FA00F21D
:10347000681C0023494607E0521ED1B2CDE900176F
:10348000C2B233464946284600F046F8BDE8FC8300
:103490002DE9FF4F82B01D460F989346C70800F0F4
:1034A000070088460026019018E0029800240BEBE4
:1034B000060A00EB06090DE004FB05F0109B10F86E
:1034C0000A2008EBC400C1B209F0FF00FFF788FF33
:1034D000641CE4B2BC42EFD3761CF6B2AE42E4D335
:1034E0000198002815D005FB07F6002408EBC70754
:1034F0000DE010980090311902981BF8012020442B
:10350000F9B2C0B2019BFFF78FFF641CE4B2AC427A
:10351000EFD306B0BDE8F08FF0B50828DDE905640B
:1035200019D2802917D20CB1D243D2B2FF25761C12
:1035300005FA06F6C3F10803084F46EA0204DD4027
:1035400007EBC017044B785CB2432C43AA432040DE
:103550001A7010437854F0BD00000020A90000202C
:1035600070B5104D40200024287005F1810600BF81
:1035700004F1B000C0B2FFF72BFF0020FFF728FFD7
:103580001020FFF725FF06EBC4118022681CFCF712
:103590003EFF81210348FFF70DFF641CE4B2082CB5
:1035A000E6D370BD2800002070477047FDF7BCBE11
:1035B00030B58FB028216846FCF790FF14210AA887
:1035C000FCF78CFF01210804CDE9001000240294CF
:1035D00002250491CDE907504FF4E01009906846A8
:1035E000FEF716F808B172B6FEE70F20CDE90A051E
:1035F0004FF48060CDE90C4002210AA80E94FDF73B
:103600002BFF002801D072B6FEE70FB030BD704727
:103610000148FEF79ABC0000A80500200148FEF70B
:1036200094BC0000F00500200148FEF78EBC0000AD
:10363000380600200148FEF788BC00008006002004
:10364000F0B50268164B174C174D4FF08047984263
:1036500005D0B84203D0A04201D0A84203D122F045
:1036600070064A683243984205D0B84203D0A0425F
:1036700001D0A84203D122F44074CA6822434C69A5
:1036800022F08002224302608A68C2620A68826273
:10369000984201D10969016301214161F0BD000037
:1036A000002C0140000400400008004010B501F06B
:1036B0001F030121046A99408C430462016A9A4005
:1036C0001143016210BD10B5846842EA032224F45C
:1036D0007F440A432243826010BD826822F0700258
:1036E0000A4342F0070181607047000030B5036A69
:1036F000026A22F0010202624268846924F07305C2
:103700000C682C4323F002058B682B430A4DA8421A
:103710000BD123F00805CB6822F440722B434D698E
:1037200023F0040315438A692A434260846149688F
:103730004163036230BD0000002C014030B5026AD5
:10374000036A23F010030362436884690D6824F45C
:10375000E64444EA05248D6822F0200242EA05127C
:103760000B4DA8420ED1CD6822F0800242EA05122C
:103770004D6923F4406343EA85038D6922F04002DA
:1037800043EA85034360846149688163026230BD16
:10379000002C014030B5036A026A22F48072026292
:1037A0004268C46923F4007324F073050C682C4349
:1037B0008D6843EA05230C4DA8420ED1CD6823F451
:1037C000006343EA05234D6922F4405242EA0512A0
:1037D0008D6923F4806342EA05124260C46149683E
:1037E000C163036230BD0000002C014030B5046AA3
:1037F000026A22F4805202624268C3690D6823F4AF
:10380000E64343EA05238D6824F4005444EA053472
:10381000064DA84204D14D6922F4804242EA851245
:103820004260C36149680164046230BD002C0140FC
:1038300010B5036A046A24F001040462846924F068
:10384000F00444EA021423F00A020A43846102628B
:1038500010BD000070B5056A046A24F0010404621A
:1038600084690F4EB04208D0B0F1804F05D00D4EA4
:10387000B04202D00C4EB04203D124F003041443F2
:1038800001E044F001041A0724F0F00444EA126253
:1038900025F00A0301F00A0119438261016270BD3B
:1038A000002C0140000400400008004010B5036AED
:1038B000046A24F010040462846923F0A00324F451
:1038C000704444EA023243EA01118261016210BD90
:1038D00030B5046A056A25F010050562856925F48E
:1038E000407545EA022222F470454FF6FF7202EA63
:1038F000033224F0A0032A43A02404EA011119434F
:103900008261016230BD10B5406A0021C185C18469
:10391000FEF7C2FD10BD70B5446A2068406994F896
:103920004110C0F3C0100025212904D118B1E5844D
:10393000204600F0B4F82068406994F84210C0F3C3
:103940008010222904D118B1E585204600F080F8C6
:10395000606C40F0100060642046FEF79DFD70BD75
:1039600010B50146406A096809684FF000028906EF
:103970002ED4C28501680C3151E8003F23F48073D6
:1039800041E80034002CF5D10168143151E8003FC2
:1039900023F0010341E80034002CF5D10168143113
:1039A00051E8003F23F0400341E80034002CF5D1FA
:1039B000202180F84210016B012909D101680C31E6
:1039C00051E8003F23F0100341E80034002CF5D10A
:1039D0004263016B012902D0FEF736FF10BD818DD5
:1039E000FEF7FEFC10BD10B5406A01214163016B7A
:1039F000012902D0FEF729FF10BD818D4908FEF78D
:103A0000EFFC10BD10B50146406A096809688906D7
:103A100016D40021C1840168143151E8002F22F02E
:103A2000800241E80023002BF5D101680C3151E8F8
:103A3000002F42F0400241E80023002BF5D110BDD9
:103A4000FEF740FF10BD10B5406AFEF73CFF10BD09
:103A500001680C3151E8002F22F4907241E80023F4
:103A6000002BF5D10168143151E8002F22F001023A
:103A700041E80023002BF5D1016B012909D1016830
:103A80000C3151E8002F22F0100241E80023002BF6
:103A9000F5D1202180F842100021016370470168B0
:103AA0000C3151E8002F22F0C00241E80023002B26
:103AB000F5D1202180F84110704708B590F84210E8
:103AC000222901D0022008BD82684FF480539A4217
:103AD00001D1016921B1816A9A421BD04AB10AE041
:103AE0000268816A5268C2F308020A80816A891CEE
:103AF00008E0026972B10268526802F07F020A703F
:103B0000816A491C8162C18D491E0904090CC18565
:103B100003D01BE002685268F1E70168CA6822F02E
:103B20002002CA600168CA6822F48072CA60016813
:103B30004A6922F001024A61202180F842100021E6
:103B40004163026B012A03D0FEF77EFE002008BD10
:103B5000016301680C3151E8002F22F0100241E8A6
:103B60000023002BF5D101680A68D20602D50A6845
:103B700049680091818DFEF733FCE7E770B5044694
:103B800000680169E26821F4405111430161216933
:103B9000A0680843616908432168CA6841F20C6360
:103BA0009A430243CA6020684169A26921F44071C6
:103BB000114341611E492068884202D1FDF7F2FCA1
:103BC00001E0FDF7DFFC00EBC00101EB00126068D3
:103BD00064218000B2FBF0F3B3FBF1F36FF0180641
:103BE0007343B2FBF0F5B2FBF0F605EB830532232D
:103BF00003EB0515B5FBF1F5B6FBF1F605F0F005A5
:103C000005EB0615B2FBF0F6B2FBF0F0B0FBF1F0FD
:103C10006FF01802504306EB800003EB0010B0FB7E
:103C2000F1F0216800F00F002844886070BD0000AA
:103C30000038014038B58162044682850020134671
:103C40006064222284F84220E56B1B4AAA62E56B7D
:103C50001A4AEA62E56B1A4A2A63E26B50630A4623
:103C60002168E06B091DFCF7B3FE2068016840681D
:103C70000090206948B120680C3050E8001F41F4E2
:103C8000807140E80012002AF5D12068143050E815
:103C9000001F41F0010140E80012002AF5D1206820
:103CA000143050E8001F41F0400140E80012002AA3
:103CB000F5D1002038BD000061390008E73900085F
:103CC000173900080148FEF7E9BB0000C8060020CC
:103CD000FEE70907090E002804DB00F1E02080F868
:103CE0000014704700F00F0000F1E02080F8141D70
:103CF000704730380A2801D20120704700207047F1
:103D000002490A68D06309680864704738060020D1
:103D10001CB5FDF711FBFFF74BFCFFF7E5F8FFF7CC
:103D2000C5F8FFF757F9FFF7FFF9FFF77FFAFFF73D
:103D300031F9FFF7A5F9FFF739FAFFF76BF9C8205A
:103D4000FCF77EFEFFF790FA28492948FFF729F88B
:103D5000322228492848FEF71BFB284800680168E2
:103D600021F004010160FFF7DBFA00250121244B5B
:103D700024A208460095FFF7EBFAFFF7F1FB4FF49A
:103D80007A70FCF75DFE1A4C083C2078F0B10328ED
:103D9000FBD118480C3803C80A1A16481BA1323048
:103DA0006260FCF715FAFFF7BBFA1548CDE900058C
:103DB000104B0121323316A20846FFF7E0FAFFF755
:103DC000CFFB25706078401C6070DEE7012020701A
:103DD000124801680A6A22F400720A620068016AE5
:103DE000016208210D48FDF7F5FFCEE754050020DC
:103DF0000C000020B8040020C80600201007002096
:103E0000C84200085374617274000000256C75008C
:103E1000686967685F74696D65000000F0050020DF
:103E200010B50B4C012210212046FCF70BFF01229C
:103E300040212046FCF706FF002220212046FCF707
:103E400001FF20460022BDE810408021FCF7FABEA9
:103E50000008014000000000000000000000000019
:103E60000000FC000000000002000000000C020C3A
:103E7000020000000000000090D0BCD0BC90000305
:103E8000000300001824FE448C0003020702010016
:103E90001824D8B04C80000300010201C038E43877
:103EA000E00001020201020208060000000000001A
:103EB00000000000000000F80402000000010204FD
:103EC000000204F800000004020100009060F860A5
:103ED00090000000010000002020FC2020000000D5
:103EE00001000000000000000000080600000000C3
:103EF0002020202020000000000000000000000022
:103F000000000002000000000080601C02000403AA
:103F100000000000F8040404F8000102020201009D
:103F20000008FC0000000002030200001884442482
:103F3000180003020202020008042424D80001022F
:103F40000202010040B088FC800000000003020073
:103F50003C242424C400010202020100F824242C81
:103F6000C0000102020201000C04E41C0400000075
:103F700003000000D8242424D8000102020201001A
:103F800038444444F800000302020100000010001D
:103F900000000000020000000000200000000000FF
:103FA000060000000020508804020000000001020A
:103FB00090909090900000000000000000020488A3
:103FC00050200002010000001804C4241800000062
:103FD00002000000F804E494F8000102020202006A
:103FE00000E09CF0800002030000030204FC242493
:103FF000D800020302020100F80404040C000102CC
:104000000202010004FC0404F800020302020100A1
:1040100004FC24740C0002030202030004FC247458
:104020000C00020302000000F0080444CC40000130
:104030000202010004FC2020FC0402030000030231
:104040000404FC040400020203020200000404FC55
:10405000040406040403000004FC24D00C0402033E
:104060000200030204FC0400000002030202020337
:10407000FC3CC03CFC0003000300030004FC30C413
:10408000FC04020302000300F8040404F800010227
:104090000202010004FC24241800020302000000B4
:1040A000F8848404F80001020207050004FC24647B
:1040B0009800020302000302182424448C00030227
:1040C000020201000C04FC040C00000203020000C8
:1040D00004FC0000FC04000102020100047C80E0FA
:1040E0001C040000030000001CE03CE01C00000376
:1040F00000030000049C609C040002030003020013
:10410000041CE01C04000002030200000C84641C78
:1041100004000203020203000000FE02020000008D
:1041200007040400000E30C000000000000102007F
:10413000000202FE00000004040700000004020464
:10414000000000000000000000000000000008085F
:10415000080808080000020000000000000000003D
:104160000040A0A0C00000010202030204FC2020C5
:10417000C00000030202010000C020206000000116
:104180000202020000C02024FC000001020203021F
:1041900000C0A0A0C0000001020202000020F8241C
:1041A00024040002030202000040A0A060200007D7
:1041B0000A0A0A0404FC2020C000020302000302D1
:1041C0000020E4000000000203020000000020E4E0
:1041D000000008080807000004FC80E0202002031B
:1041E000020003020404FC000000020203020200B9
:1041F000E020E020C00003000300030020E02020B6
:10420000C00002030200030200C02020C000000121
:104210000202010020E02020C000080F0A02010075
:1042200000C02020E0000001020A0F0820E040202A
:1042300020000203020000000060A0A02000000295
:10424000020203000020F82000000000010202002A
:1042500020E00020E00000010202030220E02080B4
:1042600060200000030100006080E0806000000327
:1042700000030000206080602000020300030200B1
:1042800020E0208060200808070100000020A060D6
:104290002000000203020200000020DE02000000F5
:1042A00000070400000000FF00000000000F0000F5
:1042B0000002DE20000000040700000002010204EA
:1042C00004020000000000000C060000543E00083C
:1042D000010202030405060708090A0B0C0D0E0F64
:1042E0001010000000000000000001020304060797
:1042F0000809000000000102030400001C4300083C
:1043000000000020280000002801000844430008A5
:1043100028000020D00D000044010008000000002B
:10432000000000000000000000050020D000000098
:10433000000000000100000010000000000000006C
:044340000024F40061
:04000005080000ED02
:00000001FF
